:020000040800F2
:1000000088090020E9010008F1010008F301000857
:10001000F5010008F7010008F901000800000000E0
:10002000000000000000000000000000FB010008CC
:10003000FD01000800000000FF010008B92E0008C3
:10004000030200080302000803020008030200087C
:10005000030200080302000803020008030200086C
:10006000030200080302000803020008030200085C
:10007000030200080302000803020008030200084C
:100080000302000803020008030200080000000049
:100090000000000000000000000000000302000853
:1000A000030200080302000803020008030200081C
:1000B0001530000839300008030200080302000868
:1000C00003020008030200080302000803020008FC
:1000D000030200087D300008B530000851320008E6
:1000E00003020008030200080302000800000000E9
:1000F0000000000000000000000000000000000000
:1001000000000000000000000000000000000000EF
:1001100000000000000000000302000803020008C5
:1001200000F002F800F050F80AA090E8000C8244B9
:100130008344AAF10107DA4501D100F045F8AFF296
:10014000090EBAE80F0013F0010F18BFFB1A43F0B5
:10015000010318472C4600004C460000103A24BF0B
:1001600078C878C1FAD8520724BF30C830C144BF1C
:1001700004680C607047000000230024002500265E
:10018000103A28BF78C1FBD8520728BF30C148BFFA
:100190000B607047662904F08A82782900F090800D
:1001A000002070471FB500F0E5FC0400002000218E
:1001B00003F0CEFE401C60600020002103F0DEFE54
:1001C000E0601FBD10B510BD00F0D4FD1146FFF773
:1001D000E9FF03F00DFB00F0F2FD03B4FFF7F2FFBF
:1001E00003BC03F0D0FA00000948804709480047E3
:1001F000FEE7FEE7FEE7FEE7FEE7FEE7FEE7FEE7D7
:10020000FEE7FEE704480549054A064B7047000033
:10021000B52F00082101000888030020880900206C
:100220008805002088050020704710B5044600F0BE
:10023000E1F90068005D000704D5DF2C02D0A4F1CD
:10024000200010BD204610BD0FB41CB5074B06AAF8
:100250007B4469460090059800F041FC0020694607
:1002600000F050FC1CBC5DF814FB0000B10800005D
:1002700070B5044685690068C10601D5302600E0E6
:100280002026C00707D070BDD4E901213046904731
:10029000206A401C20626D1EF6D570BD70B5044604
:1002A00085690078C00707D170BDD4E901212020FD
:1002B0009047206A401C20626D1EF6D570BD00007C
:1002C00070B504460D4621461068AFF300802188C2
:1002D000090502D50F4A7A4402E00E4A7A440E32EA
:1002E000002104F1240305E000F00F060009965DEB
:1002F0005E54491C0028F7D120780023000704D55C
:10030000702D02D009B1022311322046BDE87040A1
:1003100000F078B9D84300002DE9F05F8946044623
:100320004FF0000ADFF824B1FB44C0F820A02046BB
:10033000E168884700287DD0252806D0D4E901212E
:100340009047206A401C2062F1E700255F46204666
:10035000E16888472028064607DB312E05D2B81908
:1003600010F8200C08B10543F1E7A80701D525F0E6
:100370000405C4F81CA00027C4F818A02A2E09D030
:10038000304603F0F9F938B304EB8708303EC8F87B
:10039000186019E059F8041B204604EB87029161AC
:1003A000E1688847012F064618D1E069002820DA65
:1003B00025F020051DE0D8F8180000EB800006EBC2
:1003C00040003038C8F818002046E16888470646E3
:1003D00003F0D2F90028EED1012F0AD02E2E08D139
:1003E0002046E16888477F1C0646022F45F020051D
:1003F000C4DBA069002803DA404245F00105A06192
:10040000E80701D025F01005A6B1A6F14100192892
:1004100002D8203645F400654A463146204625601C
:100420004D46FFF7B7FE60B1012807D0ED1D25F05E
:10043000070000E007E000F1080978E705F104098A
:1004400075E730467AE7206ABDE8F09FAE430000CA
:10045000032A40F2308010F0030C00F0158011F8F0
:10046000013BBCF1020F624498BF11F801CB00F8C8
:10047000013B38BF11F8013BA2F1040298BF00F81C
:1004800001CB38BF00F8013B11F0030300F03F83BC
:10049000083AC0F0088051F8043B083A51F804CB00
:1004A000A0E80810F5E7121D5CBF51F8043B40F8C6
:1004B000043BAFF30080D20724BF11F8013B11F8D1
:1004C00001CB48BF11F8012B24BF00F8013B00F815
:1004D00001CB48BF00F8012B70474FF00002042900
:1004E000C0F0128010F0030C00F01B80CCF1040C63
:1004F000BCF1020F18BF00F8012BA8BF20F8022B97
:10050000A1EB0C0100F00DB85FEAC17C24BF00F83C
:10051000012B00F8012B48BF00F8012B70474FF06A
:10052000000200B5134694469646203922BFA0E843
:100530000C50A0E80C50B1F12001BFF4F7AF09074F
:1005400028BFA0E80C5048BF0CC05DF804EB890040
:1005500028BF40F8042B08BF704748BF20F8022B83
:1005600011F0804F18BF00F8012B70474FF0013C8D
:1005700050F8042B51F8043B9A4221D1A2EB0C0312
:10058000934313EACC1317D150F8042B51F8043BD2
:100590009A4215D1A2EB0C03934313EACC130BD16F
:1005A00050F8042B51F8043B9A4209D1A2EB0C03FA
:1005B000934313EACC13DBD04FF00000704700BF29
:1005C000D01A01BAB1FA81F101F0180122FA01F052
:1005D000CB40C1F12001DBB2C0B2C01A2CFA01F34A
:1005E000D11A914311EAC311E6D1704770477047A1
:1005F0007047704710B500F0BDFA001D10BD00BF78
:10060000513900002DE9F0470D46994692460446BF
:1006100000F124080168880604D5E06921F0100182
:10062000216000E00120A84201DD471B00E0002717
:10063000A1697A1902EB0900081AA0612078C006A6
:1006400002D42046FFF714FE002608E0D4E9012179
:100650001AF806009047206A401C761C20624E451E
:10066000F4DB2078C0060AD52046FFF701FE06E03D
:10067000D4E9012130209047206A401C2062381EB6
:10068000A7F10107F4DC07E0D4E9012118F805001F
:100690009047206A401C2062281EA5F10105F3DC6A
:1006A0002046FFF7FBFD2078000602D50220BDE8BA
:1006B000F0870120FBE770472DE9FF4F0C461E46EF
:1006C0004FF0FF378BB0D2E90001DDF860800A906F
:1006D0008A46C1F30A5505B93D46002108464FF048
:1006E0000000BAF1000F00F4400005DA00EB8000D2
:1006F0004FF4400101EA50004FEA9059B9F1010F5F
:1007000000DDB9460A9850EA4A000ED044F610506F
:10071000A5F2FF3545432F14B8F1000F1ED07542E6
:10072000291E1EDDC9F100021CE0B8F1010F4FF0D7
:10073000000001D0302103E0F24305E02154401CC9
:10074000B042FBDB30460022002121540B99C1F856
:100750000880C1E900200FB0BDE8F08FBD1B6D1C03
:10076000DEE74A4600DA694206A800F08DFA06ABD9
:1007700093E8070003AB83E8070050460A9900F0AE
:1007800027FB8DE80700A0F500501F380090039864
:10079000002D0ADD42F21F014A460844002303A946
:1007A0000390684600F090FD09E0A0F500504A462D
:1007B0001F38002303A90390684600F09AFD8DE8D6
:1007C00007000004000C03D04FF0FF30410800E0A8
:1007D0001046B8F1000F03D00022009215461EE02B
:1007E000751E05D400F0CAF9303262556D1EF9D578
:1007F000B3460122084302D000227F1C04E0207887
:10080000302801D100227F1E002A099784D01DE0E4
:10081000112D07DA00F0B2F9303262556D1C50EA42
:100820000102F5D1084302D00098C8B10EE00021C2
:10083000681E05E0235C625C63542254401E491C20
:100840008142F7DBAB46A81B401E0990002004F84C
:100850000B000B98099AC0F80880C0E9002B7AE7D2
:1008600011264FF0000857E72DE9F04F884604465F
:10087000D21D22F0070191B0D1E90001CDE90A01B2
:1008800002F066FF02460B98C00F01D02D2007E052
:100890002068810701D52B2002E0202101EAC00059
:1008A000032A099001D0072A05DB0346414620466A
:1008B00000F0AAF90BE12078800601D5E06900E09C
:1008C0000620B8F1650F814606D0B8F1660F18D042
:1008D000B8F1670F70D131E00020B9F1110F00902D
:1008E00001DB112301E009F101030AAA01A90CA807
:1008F000FFF7E2FEDDE90C70002609F101058346F1
:1009000047E001204B4600904FF000470AAA01A99A
:100910000CA8FFF7D1FEDDE90DB00C995D4600266D
:1009200010B909F101000D18B9EB050003D4C0F1AD
:10093000FF3609F10105A5EB09002BE0B9F1010F24
:1009400001DA4FF001090020B9F1110F009048467B
:1009500001DD112300E003460AAA01A90CA8FFF754
:10096000ABFEDDE90C704D4600268346207800077B
:100970000AD4AB4500DA5D4601A8012D04DD41191A
:1009800011F8011C302907D04F4502DA17F1040F86
:1009900004DA012082460FE06D1EEEE7002F02DC34
:1009A000ED1B3E4403E0781CA84200DD7D1CB81B13
:1009B00000F1010A4FF000472078000703D4AA4550
:1009C00001DB4FF0FF3A0021B7F1004F0DF1430872
:1009D0008DF8431024D002202B23002F01DA7F4210
:1009E0002D230A21021EA0F1010000DC5FB197FB5C
:1009F000F1FC97FBF1F201FB1C7C17460CF1300C6B
:100A000008F801CDEEE7A8F101000370218809057F
:100A100001D5452100E06521A0F1010800F8011C85
:100A200009980FA9A1EB0807FF1D00B1012041198A
:100A300001EBEA70A1693844081A401EA0612078D1
:100A4000C00602D42046FFF713FC099828B1D4E968
:100A500001219047206A401C20622078C00622D5E0
:100A60002046FFF705FC1EE0002E04DBB34502DD47
:100A700001A8805D00E03020D4E901219047206A80
:100A8000401C2062761CAAF101005FEA000A0AD12C
:100A900000F070F8C0680168405CD4E9012190471B
:100AA000206A401C2062281EA5F10105DCDC07E05D
:100AB000D4E9012118F8010B9047206A401C2062FC
:100AC000381EA7F10107F3DC2046FFF7E7FB032000
:100AD00011B041E601694A1C02610878704700B50F
:100AE0008FB0CDE901310021059105497944CDE967
:100AF000031011466846FFF70FFC0FB000BD000061
:100B0000E5FFFFFF0A6802F8010B0A60704710B5A5
:100B1000203AC0F00B80B1E81850203AA0E81850F5
:100B2000B1E81850A0E81850BFF4F5AF5FEA027CB6
:100B300024BFB1E81850A0E8185044BF18C918C025
:100B4000BDE810405FEA827C24BF51F8043B40F8C6
:100B5000043B08BF7047D20728BF31F8023B48BFAB
:100B600011F8012B28BF20F8023B48BF00F8012BE9
:100B700070470000004870474403002030B5B0F1D2
:100B80000A024FEA900E71F100034EEA817EB0EB4B
:100B90000E0061EB91014FEA101E4EEA017E10EB50
:100BA0000E0041EB11114FEA102E4EEA016E10EBD0
:100BB0000E0041EB11214FEA104E4EEA014E10EBB0
:100BC0000E0041EB1141401841F100014FEAD00005
:100BD00040EA41704FEAD10110EB80054FEA8104F1
:100BE00044EA907444EB01046D1944EB0404521B75
:100BF000A3414FF0000348BF0A3200D530BD401C6E
:100C000041F1000130BD00002DE9F0411F460446CE
:100C100003260168072A01F4006004DB08B116A569
:100C200005E016A503E008B115A500E015A521F023
:100C300010002060A069C01EA0610FB1401EA0611D
:100C40002046FFF715FB4FB1D4E901213846904704
:100C5000206A401C2062C01C206206E0206AFAE77D
:100C6000D4E9012115F8010B9047761EF8D22046F1
:100C7000FFF714FBBDE8F0814E414E006E616E003F
:100C8000494E4600696E66002DE9F04781461646DA
:100C90008AB0354878440DC88DE80D003248784454
:100CA000801C03AC0DC884E80D0041F69B3008445D
:100CB000372190FBF1F290FBF1F5A5F1800501FBE6
:100CC00012041B3C02D56442012000E00020DFF842
:100CD00098A080460027FA44AAF1BE0A0EE0E00779
:100CE0000AD03246684607EB470101230AEB81012F
:100CF00000F0FFFA8DE8070064107F1C002CEED195
:100D0000194F7F44AE3F19E0E80715D007EB0410F8
:100D10000DF1180A90E80E008AE80E00C068F04253
:100D200001D1981908903246012306A903A800F0C2
:100D3000E0FA03AB83E807006D10641C002DE3D1DB
:100D40004FF0010332466946B8F1000F03A802D004
:100D500000F0BAFA01E000F0CCFAC9E90001C9F8E4
:100D600008200AB0BDE8F087D03A0000004870477C
:100D7000240300207546FFF7F9FFAE4605006946DB
:100D8000534620F00700854618B020B5FFF73AFA21
:100D9000BDE820404FF000064FF000074FF000087C
:100DA0004FF0000B21F00701AC46ACE8C009ACE8FD
:100DB000C009ACE8C009ACE8C0098D46704710B561
:100DC0000446AFF300802046BDE81040FFF705BAA7
:100DD0005FEA400C08BF91F0000F4FEA8C234FEA06
:100DE000C12243EA51514FEA1C5018BF00F5F040B0
:100DF0004FEA300018BF41F000415FEA6C5C00F040
:100E00002980BCF1FF3F08BF40F080407047130CC1
:100E100006BF12044FF0100C4FF0000C130E04BF6D
:100E200012020CF1080C130F04BF12010CF1040C98
:100E3000930F04BF92000CF1020CD30F04BF5200B9
:100E40000CF1010C11464FF00002A0F11F00A0EBC5
:100E50000C00704711F0004F08BF704731F000419F
:100E60003FF4D5AF0B0C06BF09044FF0100C4FF048
:100E7000000C0B0E04BF09020CF1080C0B0F04BF91
:100E800009010CF1040C8B0F04BF89000CF1020C5A
:100E9000CB0F04BF49000CF1010CCCF12003A0EBF7
:100EA0000C0022FA03F302FA0CF241EA030100F10A
:100EB0000100704720F07F4C80EA030023F07F4759
:100EC000ACEB070303F57C5300F0004003F1FF0394
:100ED0002DE980494FEA154B09B44FEA144325EA3E
:100EE0000B4E24EA03480FF2042606EB13274908A9
:100EF0003E785FEA320203FB0667C7F5000707FB8F
:100F000006F64FEA54374FEAD64606F1020607FBCB
:100F1000066CCCF1005C4FEA1C472CEA074C07FB3F
:100F200006F40CFB06F504EB15464FEA961634BFA3
:100F300000204FF000404FEAD13706FB07FC4FEA94
:100F40001C4C0CFB0BF7D21B03FB0CF761EB0701EE
:100F50000CFB0EF7B0EB074072EB17420CFB08F7E7
:100F600034BFA2EB0742B2EB074261EB17414FEAF5
:100F70000C444FEA910706FB07FC4FEA1C4C0CFBA4
:100F80000BF7B0EBC74072EB573203FB0CF734BFE3
:100F9000A2EBC742B2EBC74261EB57310CFB0EF735
:100FA000B0EBC70072EB57720CFB08F734BFA2EB33
:100FB000C702B2EBC70261EB5771039F4FEA816131
:100FC00041EA921104EBCC044FEAD1374FEA826236
:100FD00006FB07FC42EA90124FEA80604FEA1C4C85
:100FE0000CFB0BF7D21B03FB0CF761EB07010CFBAF
:100FF0000EF7B0EB074072EB17420CFB08F734BF5B
:10100000A2EB0742B2EB074261EB17414FEA8C5566
:101010004FEA910704EB9C2406FB07FC4FEA1C4CAB
:101020000CFB0BF7B0EBC74072EB573203FB0CF72E
:1010300034BFA2EBC742B2EBC74261EB57310CFBA6
:101040000EF7B0EBC70072EB57720CFB08F734BF1A
:10105000A2EBC702B2EBC70261EB577115EB4C254F
:101060004FEA816141EA92114FEA82624FEAD13739
:1010700042EA901206FB07FC44F100044FEA80604C
:101080004FEA1C4C0CFB0BF7D21B03FB0CF761EB7C
:1010900007010CFB0EF7B0EB074072EB17420CFB9D
:1010A00008F734BFA2EB0742B2EB074261EB1741EE
:1010B00015EB1C154FEA813141EA92414FEA823229
:1010C00042EA90424FEA80304FEA0C7644F1000445
:1010D00048EA03434EEA0B484FF0000EB2EB080C0F
:1010E00071EB030724BF624639464EEB0E0E4FF0FC
:1010F000000B0018524149414BEB0B0BB2EB080CB3
:1011000071EB03077BF1000B24BF624639464EEBBF
:101110000E0E4FF0000B0018524149414BEB0B0BE8
:10112000B2EB080C71EB03077BF1000B24BF6246A6
:1011300039464EEB0E0E51EA020718BF46F0010683
:1011400016EB0E7655F1000254F1000103D5BDE80F
:101150008901BDE80088BDE88901BDE80048B619ED
:10116000524141EB0101A3F10103704780807F7E72
:101170007D7C7B7A7978777676757473727171700D
:101180006F6E6E6D6C6C6B6A6A69686867666665BF
:101190006464636362616160605F5F5E5E5D5D5C4D
:1011A0005C5B5B5A5A5959585857575656555555BE
:1011B0005454535352525251515050504F4F4F4E1E
:1011C0004E4D4D4D4C4C4C4B4B4B4A4A4A4949496C
:1011D00048484847474747464646454545444444AE
:1011E000444343434342424242414141002B9C46D7
:1011F00030D477002BD01CB54FEA370703B44FF03B
:1012000010004FF01001BAF1000F06D0BCF1000F32
:10121000DCBF40F0080040F008014FF000000FBCB8
:10122000BDE810400BF1010BBBF1010F08BF5FEAF5
:10123000170722BF12F1010211F101014FF0004125
:1012400043F1000300F0004043EA00007047F9D387
:101250005708D0E746EA064613F1400F4FEA164614
:101260001FDD13F1200FDFBF16430A460021203394
:101270005B42BED0C3F1200746EA064602FA07F7F2
:101280004FEA164646EA0706C3F1200722FA03F2A0
:1012900001FA07F721FA03F14FF0000342EA0702CF
:1012A000A7E746EA020646EA06464FEA164646EA37
:1012B0000106BCBF46EA0646360C4FF000034FF06D
:1012C00000024FF0000194E72DE9804C9A469346C6
:1012D00070B491E8380007C831EA400C48BF34EADE
:1012E000430C03D5FFF7E6FDFFF780FFF0BCBDE838
:1012F000008C2DE9804C9A46934670B491E83800F2
:1013000007C810F0804F08BF13F0804F03D100F0E2
:1013100005F8FFF76BFFF0BCBDE8008C20F07F47BD
:1013200080EA030023F07F4C07EB0C03A3F57C530A
:1013300000F00040A3F1FE0392F0000F00F0B38034
:1013400095F0000F00F077802DE901494FEA114038
:101350004FEA144621EA004800FB06FC24EA06474F
:1013600008FB06F607FB08F800FB07F718EB064832
:101370004CEB164C4FEA124B18EB07484FEA154658
:101380004CEB174022EA0B4E0BFB06FC25EA064706
:101390000EFB06F607FB0EFE0BFB07F71EEB064ED9
:1013A0004CEB164C4FF000061EEB074E4CEB174B68
:1013B00018EB0B0840F1000018EB0E0B58EB00087F
:1013C00040F100008F1A4FF000013CBFC943661B7B
:1013D00014BFB5EB040C00213CBFC943F61B4FEA18
:1013E00017444EEA8E0E27EA04454FEA1C4704FBD9
:1013F00007622CEA074C05FB07F70CFB05F604FB1C
:101400000CFC16EB074642EB174216EB0C4642EB80
:101410001C421BEB060658EB0202414146EA9E06BF
:1014200001D5BDE80189B619524141EB0101A3F193
:101430000103BDE801894FEA14454FEA114724EA48
:10144000054621EA074C05FB07F406FB07F70CFBF2
:1014500006F105FB0CFC11EB074144EB17444FEA86
:10146000124711EB0C4144EB1C4422EA074C05FBEC
:1014700007F206FB07F70CFB06F605FB0CFC16EB68
:10148000074642EB174216EB0C4642EB1C456A1826
:1014900054F1000148BF7047B619524141EB0101B8
:1014A000A3F10103704795F0000F37D04FEA1142C6
:1014B0004FEA144721EA024624EA074C02FB07F1EF
:1014C00006FB07F70CFB06F402FB0CFC14EB0744CD
:1014D00041EB17414FEA154714EB0C4441EB1C411B
:1014E00025EA074C02FB07F506FB07F70CFB06F69F
:1014F00002FB0CFC16EB074645EB174516EB0C46BA
:1015000045EB1C42121951F1000148BF7047B61952
:10151000524141EB0101A3F1010370474FEA144529
:101520004FEA114724EA054621EA074C05FB07F17B
:1015300006FB07F70CFB06F24FF0000605FB0CFC60
:1015400012EB074241EB174112EB0C4251EB1C41ED
:1015500048BF7047921841EB0101A3F101037047A6
:1015600021B1826842F00102826003E0826822F0C9
:10157000010282607047000010B5044612488442A0
:1015800008D10121401501F0CDF90021601501F0CD
:10159000C9F917E00D48844208D10121001501F076
:1015A000C1F90021201501F0BDF90BE00848844283
:1015B00008D10121C80301F0B5F900214FF4004022
:1015C00001F0B0F910BD00000024014000280140E6
:1015D000003C0140014600208A6802F004020AB182
:1015E000012000E0002070470146C86C80B27047BF
:1015F0000246002013680B400BB1012000E00020E0
:101600007047014600208A6802F008020AB10120F2
:1016100000E000207047000030B5024600200023A3
:1016200050680F4C20400D790C6844EA0524204393
:10163000506090680B4C2040D1E902542C434D7906
:1016400044EA450420439060D06A20F470000C7C8A
:10165000641EE4B2234340EA0350D06230BD000070
:10166000FFFEF0FFFDF7F1FFF0B504460D46002048
:101670000021092D11DDE068A5F10A0606EB4607F9
:10168000072606FA07F18843A5F10A0606EB460687
:1016900003FA06F10843E0600CE0206905EB45071A
:1016A000072606FA07F1884305EB450603FA06F11B
:1016B00008432061072A0FDA606B561E06EB860787
:1016C0001F2606FA07F18843561E06EB860605FA22
:1016D00006F10843606322E00D2A0FDA206BD61F63
:1016E00006EB86071F2606FA07F18843D61F06EB8E
:1016F000860605FA06F10843206310E0E06AA2F1CD
:101700000D0606EB86071F2606FA07F18843A2F1AD
:101710000D0606EB860605FA06F10843E062F0BD09
:10172000816841F008018160704721B1826842F40C
:10173000A002826003E0826822F4A0028260704707
:10174000816841F0040181607047000000B587B0F6
:1017500001214FF4017001F0D5F84FF4004001F081
:10176000A5F81020ADF8040000208DF8070001A9AD
:101770001E4800F05AFA1E48FFF7FEFE4020ADF862
:10178000040000208DF8070001A9184800F04DFA68
:101790001748FFF7F1FE002002908DF80C008DF83D
:1017A0000D004FF4602004900020059001208DF87A
:1017B000180002A90E48FFF72FFF01210C48FFF780
:1017C000CFFE0B48FFF7ACFF00BF0948FFF719FF3A
:1017D0000028FAD10648FFF7B3FF00BF0448FFF71F
:1017E000F9FE0028FAD107B000BD00000008014052
:1017F00000240140002114E020220D4B1A6000203B
:1018000000BF0246401CB2F5866FFADB2022084B6F
:101810001B1D1A60002000BF0246401CB2F5866FF7
:10182000FADB0A46491CB2F57A7FE5DB7047000017
:101830001008014010B5044604F0200018B301F070
:10184000EBF8012820D1022000F0BAF811480188F5
:101850000088401C0F4A10800A291AD10020114626
:1018600008800D48007828B901200B49087000F065
:101870007FFB0EE00848007801280AD100200649C5
:10188000087000F085FB04E001F0C6F808B900F02C
:101890007FFB10BDAA000020A80000202DE9F04128
:1018A0000024002500260027A04614211848FEF732
:1018B00014FE0E211748FEF710FE0020154988730C
:1018C0007C211548FEF72BFE00BF16E0134951F8A6
:1018D0002400114941F82400084610F8240010495A
:1018E000097808440E4908700E4800780E490870BF
:1018F000012000F065F8601CC4B21F2CE6DB4FF03D
:101900007E500A490860002009490860BDE8F0815E
:101910000D020020FE0100202C02002000C0010862
:10192000B800002000F10108B9000020B00000203C
:10193000B400002010B515480078052823D2DFE850
:1019400000F0030B1913210001201049087001F069
:10195000C1F901F0C7F816E003200C49087001F046
:10196000BBF801F06DF90EE002200849087001F0A3
:101970001DF908E001200549087001F0ABF901F0FC
:10198000B1F800E000BF00BF10BD000094000020CF
:1019900000F0040119B10121084A11700CE000F0B7
:1019A000080119B10021054A117005E000F010018D
:1019B00011B10221014A1170704700009E00002001
:1019C0000349086000BF024909680029FBD170473C
:1019D0008400002008B501210C2000F093FF802036
:1019E000ADF8000048208DF8030069462F4800F04C
:1019F0001CF98020ADF8000048208DF803006946EE
:101A00002B4800F012F94FF40040ADF800004820D8
:101A10008DF803006946274800F007F94FF440703D
:101A2000ADF8000048208DF803006946204800F01A
:101A3000FCF80320ADF8000048208DF8030069464B
:101A40001A4800F0F2F82020ADF8000010208DF8C0
:101A5000030001208DF802006946144800F0E5F803
:101A60004020ADF8000010208DF8030001208DF813
:101A7000020069460E4800F0D8F82020ADF80000BA
:101A800010208DF8030001208DF8020069460848F7
:101A900000F0CBF8402006491431086001F01CF832
:101AA000012005490870487008BD00000008014089
:101AB000000C0140001001407000002030B50446C9
:101AC00004254FF4302000F085F80546042D17D189
:101AD0000C48006940F002000A4908610846446168
:101AE000006940F0400008614FF4302000F072F8C7
:101AF00005460448006941F6FD7108400149086146
:101B0000284630BD0020024004200B49C96801F07E
:101B1000010109B101200EE00749C96801F0040183
:101B200009B1022007E00449C96801F0100109B1B8
:101B3000032000E0042070470020024003480069B1
:101B400040F0800001490861704700000020024019
:101B500078B506460C46042500200090E80200F007
:101B600039F80546042D24D11348006940F00100DE
:101B7000114908613480E80200F02CF80546042D74
:101B800010D1B01C0090200C00990880E80200F0F1
:101B900021F805460848006941F6FE7108400649EB
:101BA000086106E00448006941F6FE7108400249F8
:101BB0000861284678BD0000002002400248034921
:101BC0004860034848607047230167450020024091
:101BD000AB89EFCD00B502460423FFF795FF03461E
:101BE00003E0FFF791FF0346521E012B01D1002AAB
:101BF000F7D102B90523184600BD10B500F0ACFAC4
:101C00000E21062000F0B8FA0221052000F0B4FAF7
:101C10000021042000F0B0FA0521032000F0ACFA06
:101C20000921022000F0A8FA10BD2DE9F04102467A
:101C300000250026002000230024002791F803C07F
:101C40000CF00F0591F803C00CF0100CBCF1000F64
:101C500003D091F802C04CEA050591F800C0BCF130
:101C6000000F31D0146800202BE04FF0010C0CFA6B
:101C700000F3B1F800C00CEA03069E4220D18300B5
:101C80004FF00F0C0CFA03F7BC4305FA03FC4CEAC7
:101C9000040491F803C0BCF1280F06D14FF0010CE9
:101CA0000CFA00FCC2F814C00AE091F803C0BCF1C1
:101CB000480F05D14FF0010C0CFA00FCC2F810C01F
:101CC000401C0828D1D31460B1F800C0BCF1FF0F4C
:101CD00034DD546800202EE000F1080C4FF00108BC
:101CE00008FA0CF3B1F800C00CEA03069E4221D1B9
:101CF00083004FF00F0C0CFA03F7BC4305FA03FC0A
:101D00004CEA040491F803C0BCF1280F05D100F19E
:101D1000080C08FA0CF8C2F8148091F803C0BCF162
:101D2000480F07D100F1080C4FF0010808FA0CF831
:101D3000C2F81080401C0828CED35460BDE8F08162
:101D40000246002093680B400BB1012000E0002008
:101D50007047000010B504460723012221460948B8
:101D6000FFF782FC01210748FFF7DFFC00BF0221DB
:101D70000448FFF73DFC0028F9D00248FFF734FC87
:101D800010BD00000024014010B50A2001F0E2FB64
:101D9000512001F0DFFB0D2001F0DCFB0A2001F0F7
:101DA000D9FB10BD10B500243F480078012808D1A8
:101DB00000F04EFEF8B900203B49087044F00204E0
:101DC00019E039480078B0B900F042FE012805D189
:101DD000354908700020354908600CE03348016837
:101DE0000068401C314A1060642904D1002011466B
:101DF000086000F04FFD2C484078012808D100F021
:101E000049FE70B900202849487044F0010408E0F8
:101E10002548407828B900F03DFE012801D122492B
:101E2000487000F001FE80B90A20FFF7C9FD204884
:101E300001880088401C1E4A1080642919D10020A6
:101E40001146088044F0040413E000F0EDFD012881
:101E50000FD10A20FFF7B4FD154801880088401C07
:101E6000134A1080642904D100201146088044F0F0
:101E7000080400F0E3FD78B90A20FFF7A1FD0D4842
:101E800001880088401C0B4A1080642904D100207E
:101E90001146088044F010040A20FFF791FD44F039
:101EA0002004204610BD00007000002078000020B3
:101EB000800000208200002000B50648C07900F0B4
:101EC00007000449C8710846C179162001F01CFCBE
:101ED00000BD00003201002000B50648C07940F086
:101EE00008000449C8710846C179162001F00CFCAD
:101EF00000BD00003201002010B50446322C19D07C
:101F000003DC3CB1192C2DD10CE04B2C1AD0642CE5
:101F100028D11FE000201549087000210F2001F092
:101F2000F3FB20E001201149087001210F2001F08E
:101F3000EBFB18E003200D49087003210F2001F08E
:101F4000E3FB10E007200949087007210F2001F08A
:101F5000DBFB08E00F20054908700F21084601F05F
:101F6000D3FB00E000BF00BF10BD00003201002025
:101F700000B50648C07B00F007000449C873084656
:101F8000C17B1E2001F0C0FB00BD0000320100201B
:101F900000B50648C07B40F008000449C8730846F5
:101FA000C17B1E2001F0B0FB00BD0000320100200B
:101FB00010B50F2405E00021204601F0A5FB601CB0
:101FC000C4B2202CF7DB10BD10B50024012405E0BD
:101FD0001021204600F0D0F8601CC4B2092CF7DBB9
:101FE00010BD000000B50648407B00F00700044922
:101FF00048730846417B1C2001F086FB00BD0000B1
:102000003201002000B50648407B40F0080004493A
:1020100048730846417B1C2001F076FB00BD0000A0
:102020003201002008B501210C2000F06BFC49F2C0
:102030000300ADF8000010208DF8030001208DF89A
:10204000020069462B48FFF7F0FD4FF48050294904
:1020500014310860012000F06FFD032000F06CFDDA
:10206000042000F069FD052000F066FD082000F066
:1020700063FD182000F060FD292000F05DFD802048
:1020800000F05AFD402000F057FDE32000F054FD21
:10209000FFF78EFFFFF77CFFFFF7B4FF00F03CF87F
:1020A000FFF71AFF00F018F93220FFF725FF112182
:1020B000082000F061F81121072000F05DF81121DF
:1020C000062000F059F81121052000F055F81121E3
:1020D000042000F051F81121032000F04DF81121E7
:1020E000022000F049F81121012000F045F801F02C
:1020F00085FE08BD000C014000B50648C07A00F01E
:1021000007000449C8720846C17A1A2001F0FCFA97
:1021100000BD00003201002000B50648C07A40F042
:1021200008000449C8720846C17A1A2001F0ECFA86
:1021300000BD00003201002000B50648407A00F0E2
:102140000700044948720846417A182001F0DCFA79
:1021500000BD00003201002000B50648407A40F082
:102160000800044948720846417A182001F0CCFA68
:1021700000BD00003201002070B504460D46002667
:10218000012C01DB082C01DD012070BD122D01DDC9
:102190000220FAE71B48405D1B4901F814000120AA
:1021A000C0EB4400085C00F00806082E09D117486F
:1021B000405D40F008000121C1EB4401124A505437
:1021C00008E01248405D00F007000121C1EB440126
:1021D0000D4A50540122C2EB44020B4B995C012280
:1021E000C2EB44020F32D0B201F08EFA064A12F866
:1021F00014100F2202EB4402D0B201F085FA002045
:10220000C3E700003C000020320100204F00002006
:10221000F0B504460E4600250027032E47D0042EB5
:102220002ED0082E54D1FFF7CFFEFFF785FF0125F2
:1022300023E0681E205C302808DB681E205C3928FB
:1022400004DC681E205C3038C7B20EE0681E205CDB
:10225000412808DB681E205C462804DC681E205CE0
:102260003738C7B201E00120F0BDC5F10901C8B29D
:102270003946FFF781FF681CC5B2092DD9DB27E07D
:10228000FFF7A2FEFFF768FF20783038C1B20620C2
:10229000FFF772FF60783038C1B20520FFF76CFF9E
:1022A000E0783038C1B20420FFF766FF10E0FFF796
:1022B0008BFEFFF751FF60783038C1B20520FFF781
:1022C0005BFFE0783038C1B20420FFF755FF00BF54
:1022D00000BF0020C8E7000000B50648407940F084
:1022E00008000449487108464179142001F00CFAAD
:1022F00000BD0000320100202DE9FF4700200290C0
:102300000390009001900024002780468146654894
:10231000007830B1012805D0022845D0032800D12B
:102320007CE0BCE00120FFF74BFB5F4801880088A0
:10233000401C5D4A10800A2908D1002011460880FF
:10234000FFF722FD4FF48050584908605848007844
:10235000012809D100035549091D0860FFF742FE15
:102360000220534908701EE051480078022805D128
:10237000FFF748FE03204E49087014E04C480078EF
:10238000032805D1FFF72EFE0420494908700AE012
:1023900047480078042806D1FFF734FE002044495E
:1023A0000870FFF727FA7AE04FF480503F49091D83
:1023B00008600220FFF704FB3E4801880088401CAB
:1023C0003C4A1080112928D10020114608800420A1
:1023D000FFF7C0FC40F6E4410D1A284601F0F0FF7B
:1023E00004463549204601F009FF0446204601F025
:1023F00077FE05460022314B01F0E2FD00D20024B9
:10240000204601F06DFE05462A460B462CA102A887
:10241000FDF71AFF02A800F0DBFB40E04FF480500C
:102420002249091D08600220FFF7CAFA26480188E0
:102430000088401C244A108010292FD1002011460A
:10244000088022482249086000202249087001F0D3
:10245000C7FC1F48046820480168204601F0DCFFE3
:1024600005461E480168284601F066FE04462046DF
:1024700001F036FE05461A4A1A4B01F0A1FD00D2C2
:102480000024204601F02CFE05462A460B4616A1E4
:1024900002A8FDF7D9FE02A800F0E4FB00BF00BFD0
:1024A000BDE8FF879400002098000020100C014038
:1024B000640000209A0000200000C8420000E03FB5
:1024C0002530352E326600009C00002000007AC4C2
:1024D0006800002065000020B0000020B40000204B
:1024E0007B14AE47E17AA43F25352E32660000000A
:1024F00070B5002100230F22C47804B3154C246862
:1025000004F4E064C4F5E064210AC1F10403CA40A4
:10251000447804FA03F184781440214309010E4CF5
:102520000678A155047804F01F050124AC40057815
:102530006D11AD0005F1E025C5F8004109E0047812
:1025400004F01F050124AC40044D0678761145F8CF
:10255000264070BD0CED00E000E400E080E100E00A
:1025600002490143024A1160704700000000FA0569
:102570000CED00E070B500242648007830B1012849
:1025800005D0022804D0032842D121E040E03FE0FA
:102590000420FFF7DFFB064601F02AFF05461E492F
:1025A00002F006F804461D49204601F027FE0446C5
:1025B000204601F095FD05460022194B01F000FD73
:1025C00000D20024204600F037F8FFF713F91FE08F
:1025D00001F006FC1348046813480168204601F026
:1025E0001BFF054611480168284601F0A5FD044679
:1025F000204601F075FD05460D4A0E4B01F0E0FC4A
:1026000000D80024204600F079F8FFF7F3F800BF67
:1026100000BF70BD9400002000404E450000C8423D
:102620000000E03F68000020B0000020B40000205F
:102630007B14AE47E17AA43F2DE9FC410546002416
:1026400012212A48FDF76BFF284601F049FD064696
:1026500032460B4626A16846FDF7F6FD4420234985
:1026600008709DF8000048709DF8010088709DF882
:102670000200C8709DF8030008711F480078012807
:1026800017D008464078202801D130204870002417
:1026900008E0164840791549095D08441349487116
:1026A000601CC4B2052CF4DB0621104801F08AFB43
:1026B0001AE09DF804000D4948710846407820282A
:1026C00001D130204870002408E00848807907498B
:1026D000095D084405498871601CC4B2062CF4DB0E
:1026E0000721024801F06EFBBDE8FC81EC010020EF
:1026F00025352E32660000002F0000202DE9FC4118
:102700000546002412211C48FDF709FF284601F068
:10271000E7FC064632460B4618A16846FDF794FDD5
:102720005520154908709DF8000048709DF801007B
:1027300088709DF80200C8709DF8030008719DF82C
:102740000400487108464078202801D130204870A4
:10275000002408E0084880790749095D08440649D3
:102760008871601CC4B2062CF4DB0721024801F01A
:1027700029FBBDE8FC810000EC01002025352E324C
:102780006600000070B50546002412210E48FDF7D2
:10279000C6FE4E200C4908700E2229460A48401CED
:1027A000FDF756FE00BF08E00748C07B0649095DFB
:1027B00008440549C873601CC4B20F2CF4DB102117
:1027C000014801F0FFFA70BDEC01002070B5002453
:1027D00000252B48007820B1012813D002284DD1C4
:1027E0004BE00220FFF7ECF8264801880088401CE7
:1027F000244A1080502904D100201146088001F09D
:10280000FDFA3BE00220FFF7DBF81F480188008853
:10281000401C1D4A10801E292ED100201146088020
:102820001A490878FFF768FB1848008819301749DB
:102830000880084600887D281ED10620FFF78AFA06
:10284000064601F0D5FD04464FF08B41204601F0CD
:10285000D5FC06460E4901F0DFFD0446204601F096
:102860008FFD85B2B5F5D97F03DD4B200749088080
:1028700002E000200549088000E000BF00BF70BDF5
:102880009E000020A2000020A0000020A400002044
:10289000000025444020014908607047140C0140A5
:1028A0004020014908607047100C0140014600209B
:1028B000034A506820F440400843506070470000CD
:1028C0000010024029B1064AD2690243044BDA6182
:1028D00004E0034AD2698243014BDA617047000089
:1028E0000010024029B1064A12690243044B1A61E2
:1028F00004E0034A12698243014B1A6170470000E9
:102900000010024029B1064A92690243044B9A61C1
:1029100004E0034A92698243014B9A6170470000C8
:102920000010024029B1064AD2680243044BDA6023
:1029300004E0034AD2688243014BDA60704700002A
:102940000010024030B500210022002400232D4D4C
:102950006D6805F00C0121B1042905D0082923D1A7
:1029600005E0294D056022E0274D05601FE0254D5B
:102970006D6805F47012234D6D6805F480340225EE
:1029800005EB92421CB9214D554305600BE01D4DEE
:102990006D6805F400351DB11C4D5543056002E01E
:1029A000194D5543056002E0174D056000BF00BF9B
:1029B000144D6D6805F0F0010909154D6B5C056853
:1029C000DD4045600F4D6D6805F4E061090A104D6A
:1029D0006B5C4568DD4085600A4D6D6805F46051AB
:1029E000C90A0B4D6B5C4568DD40C560054D6D68DF
:1029F00005F44041890B074D6B5CC568B5FBF3F5E9
:102A0000056130BD0010024000127A0000093D004F
:102A1000140000202400002010B580210148FFF799
:102A20008FF910BD0008014010B54FF480710248C5
:102A3000FFF786F910BD0000000C014010B54FF4FF
:102A400000710248FFF77CF910BD0000000C014046
:102A500010B502210E48FFF773F901280BD10620AB
:102A6000FEF7AEFF02210A48FFF76AF9012800D1FC
:102A700010BD0020FCE70620FEF7A2FF022104485B
:102A8000FFF75EF908B90020F2E70120F0E7000047
:102A90000008014010B501210E48FFF751F9012847
:102AA0000BD10620FEF78CFF01210A48FFF748F9F9
:102AB000012800D110BD0020FCE70620FEF780FFB2
:102AC00001210448FFF73CF908B90020F2E7012092
:102AD000F0E700000008014020200149086070472D
:102AE000140C01402020014908607047100C01407F
:102AF00070B504460D46002618E004F0800018B9B1
:102B000001200C49086003E001200A49091F086000
:102B1000022008490860012000F047FE0220054914
:102B2000091F08606006040E701CC6B2AE42E4DBEA
:102B300070BD0000140C014010B504464FF4004075
:102B40000749086003218020FFF7D2FF09212046B2
:102B5000FFF7CEFF4FF400400149091F086010BD88
:102B6000140C0140F0B504460D462646002717E038
:102B700006F0010018B901200B49086003E00120AC
:102B80000949091F0860022007490860012000F078
:102B90000CFE02200449091F08607610781CC7B299
:102BA000AF42E5DBF0BD0000140C014000B5FFF7BB
:102BB00083F9FFF717FAFFF7AFFAFFF705FA02A05C
:102BC00000F006F800BD000030302E30300000006C
:102BD00010B50446FFF7F8F9FFF7BEFA2078312860
:102BE00002DB2078392812DD60783038C1B2052048
:102BF000FFF7C2FAE0783038C1B20420FFF7BCFA20
:102C000020793038C1B20320FFF7B6FA17E02078F8
:102C10003038C1B20620FFF7AFFA60783038C1B261
:102C20000520FFF7A9FAE0783038C1B20420FFF799
:102C3000A3FA20793038C1B20320FFF79DFA10BD06
:102C400000B5FFF749F9FFF7CDF9FFF755FAFFF7A0
:102C5000BBF902A000F006F800BD000030302E30B5
:102C60003000000010B50446FFF7AEF9FFF774FA24
:102C70002078312802DB2078392812DD607830385E
:102C8000C1B20520FFF778FAE0783038C1B20420ED
:102C9000FFF772FA20793038C1B20320FFF76CFADF
:102CA00017E020783038C1B20620FFF765FA607867
:102CB0003038C1B20520FFF75FFAE0783038C1B292
:102CC0000420FFF759FA20793038C1B20320FFF70A
:102CD00053FA10BD00B5FFF7EFF8FFF70DFAFFF755
:102CE00091F9082101A0FFF793FA00BD3030303090
:102CF000303030300000000010B504460821204676
:102D0000FFF786FA10BD00000148024908607047CD
:102D1000E09304008C00002010B500F001F810BD15
:102D20000CB50020019000903348006840F48030DA
:102D30003149086000BF3048006800F4003000905E
:102D40000198401C0190009818B90198B0F5A06F47
:102D5000F1D12948006800F4003010B10120009042
:102D600001E0002000900098012843D1234800682A
:102D700040F01000214908600846006820F0070074
:102D800008600846006840F0020008601A48406881
:102D9000194948600846406848600846406840F461
:102DA000806048600846406820F47C10486008460F
:102DB000406840F4E81048600846006840F08070C1
:102DC000086000BF0C48006800F000700028F9D0CF
:102DD0000948406820F003000749486008464068F9
:102DE00040F00200486000BF0348406800F00C005B
:102DF0000828F9D10CBD000000100240002002405C
:102E00002DE9F05F80460E46914600241CE016F83E
:102E100014A06000401C16F800B05046FDF705FAFB
:102E20003038C5B2092D01DDE81FC5B25846FDF79F
:102E3000FCF93038C7B2092F01DDF81FC7B207EB24
:102E4000051008F80400641C4C45E0DBBDE8F09F69
:102E500070B5034615480068B0FBF3F1B1F1807F0F
:102E600001D301201DE021F07F40401E4FF0E02201
:102E7000506150170F22002807DA1407260E0C4C59
:102E800000F00F052D1F665503E01407250E094CB1
:102E9000255400BF00204FF0E02290610720106110
:102EA000002008B100BFFEE770BD00000000002058
:102EB00018ED00E000E400E010B53A48006820B1E9
:102EC00038480068401E374908603748006868B1D4
:102ED00036480078042809D033480068401E32493B
:102EE000086033480068401E314908602E48006879
:102EF000B0F5FA6F20D111210120FFF73DF9112122
:102F00000220FFF739F911210320FFF735F91121CC
:102F10000420FFF731F911210520FFF72DF91121C8
:102F20000620FFF729F911210720FFF725F91121C4
:102F30000820FFF721F934E01B48006840F2DC511B
:102F4000884202D1FFF740F82BE017480068B0F53F
:102F50007A7F20D111210120FFF70EF911210220E3
:102F6000FFF70AF911210320FFF706F911210420C8
:102F7000FFF702F911210520FFF7FEF811210620C5
:102F8000FFF7FAF811210720FFF7F6F811210820C2
:102F9000FFF7F2F805E004480068012801D1FFF7C7
:102FA00079FC10BD840000208C00002094000020DB
:102FB0009000002010B51348006840F0010011494E
:102FC000086008464068104908400E4948600846B5
:102FD00000680E4908400B4908600846006820F464
:102FE000802008600846406820F4FE0048604FF4E6
:102FF0001F008860FFF790FE4FF0006004490860F2
:1030000010BD0000001002400000FFF8FFFFF6FEB8
:1030100008ED00E010B50121880700F01EF840B16E
:103020000121880700F016F802480068401C014999
:10303000086010BD2800002010B50121044800F0F0
:103040000CF818B10121024800F004F810BD00008E
:1030500000040040CA430282704730B50246002097
:1030600000230024158A05EA0103958905EA010475
:1030700013B10CB1012000E0002030BD10B50022DA
:1030800040F225510A4800F072F9094800F000FAB0
:10309000C4B2204600F0A4FD40F22551044800F0DF
:1030A000EFF8012240F22551014800F060F910BD0F
:1030B0000038014010B555480078012821D1544806
:1030C000007806281DDA534800F0E2F9C4B25048EF
:1030D00001780078401C4E4A10704F48445400223A
:1030E00040F225514B4800F042F940F22551494841
:1030F00000F0C6F8012240F22551464800F037F9A9
:1031000082E0002240F22551424800F030F9414867
:1031100000F0BEF9C1B2414802780078401C3F4B34
:1031200018703F4881543FA1FDF720FA48B90020AC
:103130003E49087064213A48FDF7CFF9002037492D
:1031400008703BA13648FDF711FA48B9012037490C
:10315000087064213248FDF7C0F900202F4908703B
:1031600035A12F48FDF702FA48B902202F4908700F
:1031700064212B48FDF7B1F900202849087030A1DF
:103180002748FDF7F3F948B903202849087064215E
:103190002348FDF7A2F90020204908702AA1204801
:1031A000FDF7E4F948B905202049087064211C485E
:1031B000FDF793F900201949087019480078442850
:1031C00012D11748407843280ED1154880784128FD
:1031D0000AD11348C0784C2806D1114800794928F3
:1031E00002D106201149087040F22551094800F02B
:1031F00047F8012240F22551064800F0B8F80020B7
:10320000024908700249087010BD0000AC0000209F
:103210002D00002000440040C40000202E000020AB
:10322000CE00002048454C4C4F0000002F000020ED
:10323000544553544400000054455354500000007A
:103240005445535452000000524553455400000069
:1032500010B5002240F22551084800F088F80748D0
:1032600000F016F9C4B2204600F064FC012240F2DE
:103270002551024800F07BF810BD000000480040D6
:1032800010B50022002340F66A14A14200D100BF0D
:103290000A1201249440A3B2DC43048010BD21B182
:1032A000828942F40052828104E082894DF6FF73E4
:1032B0001A4082817047000010B5044620488442BD
:1032C00009D101218803FFF72DFB00214FF4804035
:1032D000FFF728FB32E01B48844209D10121480452
:1032E000FFF700FB00214FF40030FFF7FBFA25E069
:1032F0001548844209D101218804FFF7F3FA00211F
:103300004FF48020FFF7EEFA18E01048844209D10C
:103310000121C804FFF7E6FA00214FF40020FFF76F
:10332000E1FA0BE00A48844208D101210805FFF7C1
:10333000D9FA00214FF48010FFF7D4FA10BD000035
:10334000003801400044004000480040004C00406C
:103350000050004002460020B1F5007F00D100BFC0
:1033600013880B400BB1012000E000207047F0B53E
:103370000346002400260025002040F66A17B942C3
:1033800000D100BF1846C1F3421401F01F06012707
:1033900007FA06F5012C01D10C3004E0022C01D112
:1033A000103000E014301AB107682F43076002E0C4
:1033B0000768AF430760F0BD2DE9F04786B00546CA
:1033C0000E460024A24600BFA1460027B08900B1E6
:1033D00000BF2F462C8A4CF6FF700440F08804434F
:1033E0002C82AC894EF6F3100440B0883189084332
:1033F000718908430443AC81AC8A4FF6FF40044016
:10340000B0890443AC8201A8FFF79CFA1F488742A9
:1034100002D1DDF810A001E0DDF80CA0A88900F4CD
:10342000004040B10AEBCA0000EB0A1031684900C5
:10343000B0FBF1F807E00AEBCA0000EB0A103168B4
:103440008900B0FBF1F86420B8FBF0F0040120091A
:10345000642101FB1089A88900F4004040B13220AA
:1034600000EBC900B0FBF1F000F00700044308E0F6
:10347000322000EB09106421B0FBF1F000F00F00E6
:1034800004432C8106B0BDE8F087000000380140FD
:1034900001468888C0F308007047C1F308028280A3
:1034A0007047000010B586B00446012144F20400C4
:1034B000FFF728FA2548FFF7FFFE4FF40070ADF83C
:1034C000140003208DF8160018208DF8170005A9A8
:1034D0001F48FEF7AAFB4FF48060ADF814004820A7
:1034E0008DF8170005A91A48FEF79FFB01940020EC
:1034F000ADF80800ADF80A00ADF80C00ADF810000A
:103500000C20ADF80E0001A91048FFF755FF4FF44D
:103510004070FFF725F825208DF8000001208DF878
:10352000010000208DF8020001208DF8030068469C
:10353000FEF7DEFF012240F225510448FFF717FF96
:1035400001210248FFF7ABFE06B010BD0038014074
:103550000008014010B5044600BF40210448FFF7B1
:10356000F9FE0028F9D021460148FFF796FF10BD6B
:103570000038014010B586B0044601214804FFF729
:10358000A1F901210420FFF7BDF92548FFF794FEBA
:103590000420ADF8140003208DF8160018208DF8D3
:1035A000170005A91F48FEF740FB0820ADF81400DE
:1035B00048208DF8170005A91A48FEF736FB01943C
:1035C0000020ADF80800ADF80A00ADF80C00ADF829
:1035D00010000C20ADF80E0001A91148FFF7ECFE19
:1035E0004FF44070FEF7BCFF26208DF8000002204B
:1035F0008DF8010000208DF8020001208DF80300F5
:103600006846FEF775FF012240F225510448FFF796
:10361000AEFE01210248FFF742FE06B010BD0000D9
:10362000004400400008014010B5044600BF40219E
:103630000448FFF78FFE0028F9D021460148FFF724
:103640002CFF10BD0044004010B586B00446012197
:103650008804FFF737F901210820FFF753F92048C4
:10366000FFF72AFE4FF48060ADF8140003208DF8B8
:10367000160018208DF8170005A91A48FEF7D5FA8C
:1036800001940020ADF80800ADF80A00ADF80C0078
:10369000ADF810000C20ADF80E0001A91048FFF79E
:1036A0008BFE4FF44070FEF75BFF27208DF8000083
:1036B00005208DF8010000208DF8020001208DF812
:1036C00003006846FEF714FF012240F2255104482A
:1036D000FFF74DFE01210248FFF7E1FD06B010BDE6
:1036E00000480040000C014010B5044600BF4021D6
:1036F0000448FFF72FFE0028F9D021460148FFF7C4
:10370000CCFE10BD0048004030B504460D464FF4D5
:1037100000400E4908601B2C01D11C2402E01C2C27
:1037200000D11B240321A020FFF7E2F9A106080E17
:103730000621FFF7DDF904212846FFF713FA4FF4BD
:1037400000400249091F086030BD0000140C014010
:10375000490050EAC12018BF04204A0D18BF40F0AC
:10376000010040F2FF72B2EB515F08BF40F002006F
:10377000012808BF0520704730380A2801D20120EF
:10378000704700207047014600BF0020704710B509
:103790005220FFF7A9FFB220FFF7A6FF4D20FFF749
:1037A000A3FFC820FEF70CF910BD0CE0012107E0D3
:1037B000062201E0531EDAB2002AFBD14B1ED9B219
:1037C0000029F5D1401E0028F0D1704710B5012026
:1037D00004490870072104A000F0F4FA3220FEF733
:1037E000EFF810BDAC00002041542B474D41430081
:1037F0000025FEF7EFF84FF47A70FFF729FB4FF43E
:103800007A70FEF7DDF84FF41640FFF74BFE4FF4E9
:103810001650FFF7AFFE4FF41650FFF715FFFDF7F8
:1038200095FFFEF7FFFBFEF739F800F0B1F9FFF75F
:1038300037F8FFF7CBFF00F029FBFDF7DBFF322065
:10384000FEF7BEF8FEF7D9F9FFF7A1FF0420A14962
:10385000087000BF9F48007830BB4FF480509E49ED
:10386000086011219DA000F0ADFAA148A1490860AF
:1038700047F23050A04908603220FEF7A1F8FEF769
:103880006BFC0A210620FEF777FC0A210520FEF7D3
:1038900073FC0A210420FEF76FFC0A210320FEF7C7
:1038A0006BFC04208B4908708A480078012823D1DA
:1038B00000240003884908608D488E49086047F25B
:1038C00030508D4908600420FEF744FA40F6E44188
:1038D0000E1A304600F074FD04468849204600F078
:1038E0008DFC04463220FEF76BF82046FEF7A4FE5E
:1038F00004207849087000BF76480078022812D169
:103900007B487C49086047F230507B4908604FF49F
:10391000805071490860032079490870FEF72AFE3B
:1039200004206C4908706B48007803284BD14FF491
:103930008050694908606E486E49086047F230500F
:103940006D49086009E001206D490870FFF7CAF869
:10395000FEF7D2FC6420FEF733F86A4800780528A9
:1039600006D06548006818B15A4800780328EAD0A4
:103970006148006878B95748007801280BD055484D
:103980000078022807D007205249087047F23050CB
:10399000594908600EE04F48007801280AD04D4888
:1039A0000078022806D008204A49087047F23050B3
:1039B000514908600020534908705149087047F286
:1039C00030504D4908604348007807280CD1092140
:1039D0004DA000F0F7F94648464908604D48464971
:1039E000086004203B4908703A48007808280CD148
:1039F000092149A000F0E6F93D483E4908604548E4
:103A00003D49086004203349087032480078052891
:103A10000AD1FEF73FFF4FF4FA70FDF7D1FFFEF732
:103A20003FFF04202B4908702A480078062832D12D
:103A30000024FEF7C3F83B48FEF740F8052409E0F0
:103A4000394A115D621F374B03EB8200FEF780F8A5
:103A5000601CC4B2242CF3DB3448FEF72FF8242476
:103A60000AE0314A115DA4F12402304B03EB8200DD
:103A7000FEF76EF8601CC4B2432CF2DBFEF75EF872
:103A800064212948FCF729FD0020294908700420F9
:103A90001049087000BFFEF785F9054605F00200E1
:103AA00018B1FDF747FFFFF72FF905F01C0010B123
:103AB0002846FDF76DFF05F0010018B1FEF75AFD2D
:103AC000FFF722F92846FDF7B5FEFEF715FCFEF7D5
:103AD0007DFEBFE62F000020140C014048656C6C91
:103AE0006F205465737462656E63683A2900000044
:103AF00000A3E1118C000020900000200000C842CB
:103B0000940000202C0000205246494420464149A0
:103B10004C000000E09304005246494420504153B9
:103B20005300000000C00108CE00002000E00108A2
:103B30002E00002070B50446114801780078401C22
:103B40000F4A10700F48445410460078032815D1CE
:103B50000C480078DA280ED10A484578807800EBC6
:103B6000052085B2284600F043FC0646064900F0D1
:103B700045FB0649086000200149087070BD00003F
:103B800065000020B001002000007A446800002099
:103B900010B510480078D8B10F480078012817D028
:103BA00001200D490870FEF709F80C48FDF786FF63
:103BB000094801780948FDF7CBFFFDF7BFFF322028
:103BC000FDF7FEFEFEF766FE4FF4FA60FDF7F8FE25
:103BD00010BD0000B8000020B900002000F101086D
:103BE00010B504461E4890F8680020B1012810D096
:103BF000022832D130E00A2C0AD10120184981F87C
:103C000068000846416EFCF78AFC002014494866AB
:103C100023E01348416E406E401C114A5066104626
:103C200044540A2C0AD1406E801E1146085C0D28AF
:103C300004D1022081F8680000F014F80848406EB2
:103C4000642808D30648416EFCF769FC002004494B
:103C5000486681F8680000E000BF00BF10BD0000AA
:103C60004401002000B595B01C210EA8FCF757FCBC
:103C700000200C900D903A4800784E2861D05128D1
:103C800060D13748406E232856D11C223449491C44
:103C90000EA8FFF7B5F89DF845009DF84410CDE952
:103CA00000109DF843309DF842202EA10CA8FCF78F
:103CB000CBFA0CA8FFF720F82F480078401C2E49BB
:103CC000087001202D4908702D480078032803D082
:103CD0000EA8FEF757FD2FE09DF845009DF8441013
:103CE0009DF843209DF84230CDE90832CDE90A1015
:103CF0009DF841009DF840209DF83F109DF83E3012
:103D0000CDE90431CDE906209DF83D209DF83C0029
:103D10009DF83B109DF83A30CDE90031CDE9020223
:103D20009DF839309DF8382016A12548FCF78CFA0B
:103D30001C21234800F046F80020094981F868005A
:103D400000E000BF00BF0020054981F86800084678
:103D5000416EFCF7E4FB00200149486615B000BD48
:103D60004401002025303258253032582530325851
:103D700025303258000000002C0000206400002094
:103D80002F00002025303258253032582530325847
:103D900025303258253032582530325825303258A7
:103DA0002530325825303258253032582530325897
:103DB0002530325825303258253032580000000066
:103DC000CE01002070B505460E46002400BF04E079
:103DD000285DFFF729FC601CC4B2B442F8DB70BD5B
:103DE00010B55220FFF780FCF620FFF77DFC09207C
:103DF000FFF77AFCC820FDF7E3FD10BD70B5002584
:103E000000240620FDF7A6FF064600F0F1FA05465D
:103E10004FF08B41284600F0F1F906461A4900F0B0
:103E2000FBFA0546284600F0ABFA84B2FEF754FAD6
:103E3000B4F5D47F03DD6420FEF75EF823E0B4F52B
:103E4000D47F06DCB4F5C87F03DD4B20FEF754F8C1
:103E500019E0B4F5C87F06DCB4F5C37F03DB32207C
:103E6000FEF74AF80FE0B4F5C37F06DAB4F5C07F79
:103E700003DD1920FEF740F805E0B4F5C07F02DC51
:103E80000020FEF739F870BD0000254470B500250C
:103E9000002441F288302749086000BF07E0264926
:103EA00001EB840090F8000F0544601CC4B2062C9E
:103EB000F5DB0DB9012000E0002040F2FA518D42FF
:103EC00001D1012100E00021084348B3FDF776FE4F
:103ED0001A48FDF7F3FD12E000240EE0184A115DC8
:103EE000164A02EB8400FDF733FE134901EB840010
:103EF00090F8000F0544601CC4B2062CEEDB0DB92F
:103F0000012000E0002040F2FA518D4201D1012150
:103F100000E00021084318B1064800680028DBD102
:103F20000448006818B9082106A0FFF74BFFFDF709
:103F300005FE70BD9000002000F0010800FF0108A0
:103F4000C40000204D4143204641494C0000000080
:103F500010B500290AD00878002807D00548784411
:103F6000FCF704FB002801D0002010BD0248784473
:103F700010BD0000420800003A08000010B50029FA
:103F80000AD00878002807D005487844FCF7EEFAF4
:103F9000002801D0002010BD0248784410BD000068
:103FA000260900001E090000491058BFC1F1404118
:103FB0005B1058BFC3F140438B42EFF30080704762
:103FC00051EA030C17D41CF5801F58BFBCF5801FA5
:103FD00000F10680994218BF704708BF90427047B1
:103FE00007D711F5801F58BF13F5801F19D49942C8
:103FF0007047894270471CF5801F08D5BCF5801FAB
:10400000F7D58B4218BF704708BF824270474FF404
:10401000001C1CEB410F38BF1CEB430F01D28B423D
:10402000704770B500F008F8922449004FF0005135
:104030004FF08053FFF7B8BF0EF1020E2EF0030EC3
:104040005EF8046B364205D4012A43EB030515F5EF
:10405000001F12D8012841EB010C1CF5001F0CD8E1
:104060000ED14FEAD17C15F5001F0CEB4C0C0CF176
:10407000020C08BF4CEBD37C04E04FF0080C01E0CD
:104080004FEAD37C0CEB4C0526FA05F606F0070642
:10409000B6F1040C06D20EEB860CBDE870404CF075
:1040A000010C6047DFE80CF0090B02024FF0004101
:1040B0004FF00000A1F5002170BD194610460128FF
:1040C00051EB010418BFD4F5001484BF002001F0A7
:1040D000004170BD0808A0F500114FEA310170479A
:1040E00043004FEAD30C4FEA3C0C43401FBF40074C
:1040F0000CF1605113F0FE4F70471CF0006F03D1BC
:1041000000200CF0004170470CF0004343EA50706F
:1041100010B540EACC0000F000FA00BF00000092A9
:104120004FEA0001FFF7D6BF4FF000414FF000000B
:10413000A1F500217047000090EA010F48BF81F00F
:10414000004100F14682421A3CBF801A89184FEAAA
:10415000D0524FF07F4C1CEA410FA2EBD15318BF55
:104160009CEA026F00F03B804FF0004C4CEA0020CC
:104170004CEA012121FA03FC10EB0C0C1ED202F1D7
:10418000FF325FEA1C2040EBC25038BF70471CF082
:104190007F0F4FEA400C18BFBCF17F4F38BF70470C
:1041A000C3F12003994008BF20F00100BCF17F4F0C
:1041B00038BF7047A0F1C04000F0F5B94FEA3C00AD
:1041C000000A40EBC25028BF1CF0FF0F4FEA400C22
:1041D000E6D018BFBCF17F4F38BF7047EAE79CEAD2
:1041E000026F05D010EA5C0F08BF00F00040704776
:1041F00010B500F092F900BF64FBBE3E4FF47F0C97
:104200001CEAD0121EBF1CEAD11392EA0C0F93EAEB
:104210000C0F00F0858090EA010F48BF42F48072D5
:1042200040F4000C41F400002CF07F4120F07F406E
:1042300000B58142A2EB03020FF2081CACEB504E1A
:10424000C0F100009EF800E04FEA4E0E00FB0EFCAD
:1042500038BF49004FEA2C1C02F5FA020CFB0EF3A2
:104260004FEACE1E4FEA112C4FEAC1210EEB635EDE
:1042700042EB22420EFB0CFC4FEA1C5300FB0311E5
:104280004FEA112C4FEA01310EFB0CFC4FEADC4CDB
:1042900000FB0C11C14228BF09184CEB03335DF839
:1042A00004EB10EB410143EBC250B2F57C0F38BF79
:1042B000704729D512F0F00F1CBF00F1C04000F08C
:1042C00000407047008182838485868788898B8C33
:1042D0008D8E8F919293959697999A9C9D9FA0A26F
:1042E000A3A5A7A8AAACAEB0B2B3B5B7B9BCBEC0BF
:1042F000C2C5C7C9CCCED1D4D7D9DCDFE2E6E9EC60
:10430000F0F3F7FAFE0000004FEA400C0CF1807C5D
:10431000BCF17E4F28BF7047B0F1C04000F043B9F8
:1043200090EA010F0CEAD11348BF42F48072624553
:1043300038BF634507D213F47F0F16D080EA01001F
:1043400000F00040704710B500F0E7F8097EFC3E31
:1043500000F005B880EA010000F00040704780EAF4
:10436000010000F0004000F01EB912F47F0F04BFFE
:104370000248704780EA010000F015B90000C07FD4
:10438000C10DD1F19E0206DB4FEA002343F000434A
:1043900023FA02F07047004207D54FEA4001B1F11D
:1043A000FE4F02D24FF00000704710B500F0B5F894
:1043B00049922480002070476FEA20007047000077
:1043C00010F0004148BF4042B0FA80F310FA03F207
:1043D000C3F19D030BD051EAC35101EB12205306E8
:1043E00038BF704700F1010008BF20F0010070479E
:1043F000B0FA80F310FA03F2C3F19D030AD0D90595
:1044000001EB1220530638BF704700F1010008BFCE
:1044100020F00100704700004FF47F0C1CEAD0121E
:104420001EBF1CEAD11392EA0C0F93EA0C0F00F0A6
:10443000478090EA010F48BF42F480724FF0004C71
:104440004CEA00204CEA012102EB0302A0FB01131D
:10445000A2F50002002918BF43F001035B0028BF4A
:104460004FEA330342EB22425FEA132C4CEBC2507B
:104470002EBFBCEB436FB2F57C0F70474FEA036C65
:10448000BCF1004F08BF20F00100B2F57C0F38BF2F
:1044900070470BD582F0FF0212F5803FC8BF70470E
:1044A00000F1C040D8BF00F00040704700F5000C9C
:1044B0005FEA4C0C48BF7047B0F1C04000F073B8E1
:1044C00090EA010F0CEAD11348BF42F480726245B2
:1044D00038BF634504D280EA010000F00040704715
:1044E00010B500F01AF800BF8900013E00F007B8CF
:1044F00000F009B85FEA410C5FEA1C6C08D080EA62
:10450000010000F050B85FEA400C5FEA1C6CF6D185
:104510004FF00040A0F5800070470EF1020E2EF023
:10452000030E5EF8044B244204D44FEA4102B2F178
:104530007F4F11D84FEA4003B3F17F4F0CD80ED113
:104540004FEAD07CB2F17F4F0CEB4C0C0CF1020C1B
:1045500008BF4CEBD17C04E04FF0080C01E04FEABF
:10456000D17C0CEB4C0324FA03F404F00704B4F1FF
:10457000040C06D20EEB840CBDE810404CF0010C8C
:104580006047DFE80CF0070802024FF00040A0F59A
:10459000800010BD0846420018BFD2F1807288BF6B
:1045A00000F0004010BDFF2141EAD050C005704727
:1045B00080F0004090EA010F7FF5C5AD81F0004129
:1045C00000F007B890EA010F48BF81F000413FF5C5
:1045D000BAAD421A04D882F00042A0EB02001144A6
:1045E0004FEAD0524FF07F4C1CEA410FA2EBD1535F
:1045F00018BF9CEA026F4AD04FF0004C4CEA0020F2
:104600004CEA012121FA03FCB0EB0C0C0FD412F0A0
:10461000FE0F36D05FEA4C001DD5001240EBC250B1
:1046200038BF70471CF03F0F18BF70470BE0A2F176
:1046300001025FEA1C2040EBC25038BF70471CF0FB
:104640007F0F18BF7047C3F12003994014BF401E6D
:1046500020F00100704780084FEA122308BF70471E
:10466000B0FA80FCA2EB0C02CCF1280C60FA0CF042
:1046700093EA122F04BF00EBC25070474FEAC37099
:104680007047130A5FEADC1008BF7047F6E79CEA40
:10469000026F04D010EA5C0F08BF0020704710B50D
:1046A000FFF73BFF40DFF63E81F000407047FCF72C
:1046B000DBB8303132333435363738394142434450
:1046C000454640305800303132333435363738398A
:1046D0006162636465664030780004000008000091
:1046E0000000000000020001000010000240000075
:1046F000000000A00000000005400000000000C80D
:10470000000000000C4000000000409C0000000081
:10471000194000000020BCBE000000003440000032
:10472000BFC91B8E00000004B5400000504BCFD025
:104730006607E2CF010000006C4100003E8251AAF2
:10474000DFEEA73401000000D9420000DCB5A0E292
:104750003A301F97FFFFFFFFB4450000FD25A0C8BA
:10476000E9A3C14FFFFFFFFFFF3F000000000080F3
:1047700000000000FF3F000000000080000000007B
:10478000CC48000800000020C40000005C010008C4
:1047900090490008C4000020C40800007801000807
:1047A0001001000043000000F8FFFFFF0040404000
:1047B00040404040404041414141414040404040F4
:1047C00040404040404040404040404040050202A0
:1047D000020202020202020202020202022020205F
:1047E00020202020202020020202020202029090BB
:1047F00090909090101010101010101010101010B9
:10480000101010101010101002020202020288880C
:104810008888888808080808080808080808080818
:104820000808080808080808020202024000000000
:104830000000000000000000000000000000000078
:104840000000000000000000000000000000000068
:104850000000000000000000000000000000000058
:104860000000000000000000000000000000000048
:104870000000000000000000000000000000000038
:104880000000000000000000000000000000000028
:104890000000000000000000000000000000000018
:1048A0000000000000000000000000000000000008
:1048B0001C00000043000000F8FFFFFF0C00000098
:1048C0000E0000000F0000002E00000000A24A04AD
:1048D00000000000000000000102030406070809B0
:1048E0000000000001020304010203040607080996
:1048F00002040608000000000000000400000000A0
:1049000000000000000000000F000B09040D0F085C
:104910000F0D0E070F030F0E000006050506070713
:104920000303050707070300070202000207000050
:104930000000000000000000000000000000000077
:104940000000000000000000000000000000000067
:104950000000000000000000E093040060EA000096
:104960000000000000000000000000000000000047
:104970000000000000000000000000000000000037
:104980000000000000000000000000000000000027
:0400000508000121CD
:00000001FF
